:020000040800F2
:10000000800800208D010008950100089701000874
:1000100000000000000000000000000000000000E0
:10002000000000000000000000000000990100082E
:1000300000000000000000009B0100089D01000876
:100040009F010008000000009F0100089F010008B8
:100050009F0100089F010008A9030008C1030008D0
:10006000000000009F0100084D0300089F010008E8
:100070009F0100089F0100089F0100080000000088
:100080009F0100089F010008000000009F01000878
:10009000000000009F0100089F0100089F01000868
:1000A000000000009F01000800000000490C00084B
:1000B00000F002F800F03EF80CA030C80838241810
:1000C0002D18A246671EAB4654465D46AC4201D190
:1000D00000F030F87E460F3E0FCCB6460126334284
:1000E00000D0FB1AA246AB4633431847440E00002B
:1000F000640E0000103A02D378C878C1FAD85207CB
:1001000001D330C830C101D504680C6070470000CD
:100110000023002400250026103A01D378C1FBD823
:10012000520700D330C100D50B6070471FB51FBD0B
:1001300010B510BD00F08AF81146FFF7F7FF00F088
:100140009DFE00F0A2F803B4FFF7F2FF03BC00F03D
:10015000A9F8000070B505460C46164602E00FCC23
:100160000FC5103E102EFAD2082E02D303CC03C5C1
:10017000083E042E07D301CC01C5361F03E02178C9
:100180002970641C6D1C761EF9D270BD074880472B
:1001900007480047FEE7FEE7FEE7FEE7FEE7FEE76B
:1001A00004480549054A064B704700008D0A0008BF
:1001B000B100000880020020800800208004002098
:1001C00080040020F8B5042A2CD3830712D00B78C2
:1001D000491C0370401C521E83070BD00B78491C2E
:1001E0000370401C521E830704D00B78491C037017
:1001F000401C521E8B079B0F05D0C91ADF0020231D
:10020000DE1B08C90AE0FFF7A5FFF8BD1D4608C9B7
:10021000FD401C46B4402C4310C0121F042AF5D2E6
:10022000F308C91A521EF0D40B78491C0370401C05
:10023000521EEAD40B78491C0370401C012AE4D4F6
:1002400009780170F8BD704770477047754600F037
:1002500025F8AE46050069465346C008C0008546ED
:1002600018B020B5FFF79CFF60BC00274908B646D0
:100270000026C0C5C0C5C0C5C0C5C0C5C0C5C0C5B5
:10028000C0C5403D49008D46704710B50446C04684
:10029000C0462046FFF757FF10BD000000487047DA
:1002A0002002002001491820ABBEFEE72600020014
:1002B0007047000030B587B01822194901A8FFF730
:1002C00049FF0025002400BF16E0E00001A90858FE
:1002D0000068E10001AA89180979C840C007C00F69
:1002E000002804D00020A0402843C5B203E001202C
:1002F000A0402843C5B2641C032CE6DB0948007803
:1003000068404007400F002808D00648057006489E
:1003100080690121490508430349886107B030BD60
:10032000180F0008100000200004004810B506480F
:10033000407880210840802802D100F091FA01E045
:1003400000F0C4FC10BD00000000002010B51448EF
:10035000006820210840202806D111484068084341
:100360000F49486000F0F0F80D480068012149028B
:100370000840884211D10A4840680843084948604B
:100380000848407B002802D100F066F810BD0548FF
:10039000407B012801D100F035F800BFF6E70000EE
:1003A000000002401000002010B5044840690821F8
:1003B000084302494861FFF77DFF10BD000401407A
:1003C00010B50F484069C006C00F002807D00C4880
:1003D0004069102108430A494861FFF76BFF08484C
:1003E00040690004C00F002808D005484069012179
:1003F000C903084302494861FFF75CFF10BD0000D4
:10040000000401401148006B400840000F49086398
:100410000F488068402188430D498860084600687D
:100420000121890688430A4908600846406801217D
:10043000C9058843064948600846006820210843EA
:1004400003490860022003494873704700000240D6
:10045000003801401000002010B53748006B4008FC
:100460004000354908633548C863001FC078000262
:100470003249091F8978084304463048001F4078F4
:1004800080210840802817D12D488068402188436A
:100490002B498860084600682021084328490860E5
:1004A000002C05D100F02CFB00202649487310BD1C
:1004B000022024494873FAE7002C06D0012C16D0FC
:1004C000022C1AD0032C26D11EE01D488068402142
:1004D00088431B4988600846006820210843184962
:1004E000086000F00DFB002016494873DFE701208B
:1004F000144948731049486314E0012011494873B6
:1005000002200D4948630DE001200E494873032085
:100510000949486306E001200A4948730320064957
:10052000486300BF00BF0448006B01210843024933
:10053000086300BFBBE70000000002400400002089
:1005400000380140100000201348006880218843D3
:100550001149086000BF1048C06940210840402888
:10056000F9D10E4800680321090308430B490860CC
:1005700009480068082188430749086008468068E0
:1005800080218843044988600548C06940084000CC
:100590000349C8617047000000380140000400486A
:1005A000000002400C484069012108430A494861A3
:1005B0000A480B4908610B484861084680680A49A7
:1005C0000843074988608815C8600846806801218B
:1005D0000843034988607047001002401400004837
:1005E000000002401E000020B015000009484069CC
:1005F00001210843074948610748084948620848FB
:1006000088620846C069074908430449C861072051
:100610000862704700100240283801400000024084
:100620000700002092100000064807498863074829
:10063000C8630846006B0649084303490863032062
:100640004863704724380140000002400000002049
:1006500082100000254840690121490408432349CC
:1006600048610920C0060068214908430921C906DC
:100670000860084680681F4908430921C906886048
:100680000846C0681A4908430921C906C8600846D7
:100690008069194908430921C906886113484069DE
:1006A000012189040843114948611448006809156B
:1006B00008431249086008468068032189020843FC
:1006C0000E49886008468069202108430B498861EB
:1006D00008460068032109030843084908600846E2
:1006E000006849010843054908607047001002404E
:1006F00055555500FFFFFF000000FF0F00040048A4
:1007000010B562B60121132000F07CFB132000F02D
:1007100069FB01210A2000F075FB0A2000F062FB52
:100720001B2000F05FFB20488069012108431E491F
:10073000886188141D4988601D4880680821084325
:100740001B4988600846C068082108431849C860EA
:100750000846006808210843154908600221062060
:1007600000F050FB062000F03DFB01210F48C16066
:10077000002141610E4880680E4908430C49886099
:100780000846C0680B4908430949C8600846006824
:1007900008490843064908600221072000F032FB9F
:1007A000072000F01FFB10BD0010024000000140B8
:1007B00000040140108000000C4880690121890478
:1007C00008430A4988610A48C068891508430849EE
:1007D000C860FF20E03088620120C86208460068D7
:1007E0008121084302490860704700000010024060
:1007F00000480140174880690121890308431549D1
:100800008861FF20A2301449C860084600680521AD
:10081000890288431049086008464068032109039B
:1008200088430D494860084600680C4908430A4956
:10083000086018204861084640680121C90508433E
:1008400005494860084600680121084302490860DC
:1008500070470000001002400038014024200000D2
:1008600010B52A4840784406640E230000F0ACFA24
:1008700005040D1C2B3A49002548806920210843B6
:100880002349886100F03CF93EE022484078224943
:10089000087120488178204841711E48C1781E485F
:1008A000817100F02DF92FE01A4800791A4908717A
:1008B0001848417918484171164881791648817164
:1008C00000F01EF920E01348C0791349087111485F
:1008D000017A114841710F48417A0F48817100F047
:1008E0000FF911E00B48807A0B4908710948C17A69
:1008F000094841710748017B0748817100F000F900
:1009000002E000F0FDF800BF00BF10BD00000020B5
:10091000000400481000002007000020F3B5164A2C
:100920000023481E460086190720B040C04384B209
:10093000002500201DE000231688264035466E461F
:100940003678864200DD01236E467678864201DDE8
:10095000022633436E46B678864201DD04263343D1
:100960004E1E7700F7191E46BE402E431680921C7D
:10097000401CFF28DFDBFCBD1E0000201C48006877
:10098000202188431A4908600846806840210843AE
:1009900017498860182048610846006A15490843CD
:1009A00013490862084640680121C90508431049F7
:1009B0004860084600680121890608430C49086020
:1009C0000D48006B400840000B490863084640682A
:1009D00049150843084948600848C863032048632C
:1009E0000846006B01210843034908637047000073
:1009F0000038014002080000000002400100002011
:100A0000002120480068012210431E4A10601E4841
:100A100040680522D20410431B4A5060104600680B
:100A2000012212061043184A106000BF00BF16488A
:100A30000068012252061040002800D00EE001207C
:100A40000003814208DD104800680122120690432D
:100A50000D4A106001207047491CE8E700BF0A48B2
:100A60004068094A50601046406802221043064A16
:100A7000506000BF044840680C2210400828F9D19B
:100A80000020E8E7002002400010024019480068FA
:100A90000121084317490860084640681649084084
:100AA0001449486008460068144908401149086024
:100AB000084600680121890488430E4908600846F9
:100AC00040683F21090488430A4948600846C06AD3
:100AD00000090001C8620846006BFF2114318843F9
:100AE000044908630846406B400840004863002002
:100AF00088607047001002400CB8FF08FFFFF6FE48
:100B000070B5002100244A4B5B785A06520E494DBD
:100B1000130000F059F9050406090C0F12004648AD
:100B20000DE04548401C0AE04348001D07E04248EC
:100B3000C01D04E040480A3001E03F4800BF00BF4C
:100B40003B4B5B783B4E361F7370394BDB781C0296
:100B5000374B9B781C430FE0012902DB002A00D1B0
:100B60000CE0032900DB09E0052A00DB06E003783E
:100B70002B706D1C401C491CA142EDDB00BF2D4BAE
:100B80001B1F99700B041E0E2A4B1B1FDE702B4B74
:100B90001B6803263603B343284E336033461B6875
:100BA000012676033343254E336033461B68012606
:100BB00076033343214E336033469B680326360366
:100BC00033431E4EB3601E4BDB695B085B001C4E5B
:100BD000F36133465B6876153343194E7360154BEA
:100BE0001B1FB362124B5B7880263340802B03D1EE
:100BF0000B1D134E336202E00423114E3362114B7E
:100C00001B68082633430F4E336033469B688026AB
:100C100033430C4EB3600A4BDB6901263343084E65
:100C2000F361084B1B6880263343064E336070BD6A
:100C3000000000200B0000201000002000040048ED
:100C4000000002400038014010B51D4884881C484F
:100C50002038C0690121C9020840884220D11848C3
:100C60002038006A891C0843154920390862154854
:100C7000006B400840001349086311482038806821
:100C8000402188430E4920398860084600682021A9
:100C900008430B492039086000200B49487310BDF8
:100CA000022C02D1FFF76AFE07E005482038806970
:100CB0000421084302492039886100BFEFE70000A2
:100CC00020380140000002401000002008B53C48D8
:100CD00040784006400E030000F076F805040B2330
:100CE0003B536C003648007936490870FFF708FF1F
:100CF00063E03348007933494870314841793148DD
:100D000081702F4881792F48C1700322411C6846A9
:100D1000FFF758FA01210098FFF700FEFFF7F0FEF9
:100D20004BE0274800792749087125484179254833
:100D3000417123488179234881710322011D68464E
:100D4000FFF740FA02210098FFF7E8FDFFF7D8FE11
:100D500033E01B4800791B49C8711948417919488B
:100D6000017217488179174841720322C11D6846F4
:100D7000FFF728FA03210098FFF7D0FDFFF7C0FE28
:100D80001BE00F4800790F4988720D4841790D48E2
:100D9000C1720B4881790B480173032201460A3165
:100DA0006846FFF70FFA04210098FFF7B7FDFFF739
:100DB000A7FE02E0FFF7A4FE00BF00BF08BD0000D1
:100DC000000000201000002030B47446641E257816
:100DD000641CAB4204D3635D5B00E31830BC18476E
:100DE0001D46F8E7002809DB00BF00BFC206D20E8F
:100DF00001219140024A116000BF00BF704700000E
:100E000000E100E010B5002819DB1A4A03231B0299
:100E1000D21883089B00D2588307DC0EFF23A3401F
:100E20009A438B071B0E8407E40EA3401A43114B11
:100E3000032424021B198408A4001A5118E00E4A46
:100E400003071B0F083B9B089B00D2588307DC0E4F
:100E5000FF23A3409A438B071B0E8407E40EA34095
:100E60001A43054B0407240F083CA408A4001A5198
:100E700010BD000000E100E01CED00E008B5FFF748
:100E8000BFFD012801D100BFFEE7FFF7E3FBFFF73D
:100E9000B1FCFFF787FBFFF7A9FBFFF7C5FB0322B8
:100EA0001C496846FFF78EF901210098FFF736FDCF
:100EB0001849491E8A8868460280C98841800221F3
:100EC0000098FFF72BFD03221249891D6846FFF7A2
:100ED00079F903210098FFF721FD0E49491E4A893F
:100EE000684602808989418004210098FFF716FD39
:100EF000FFF762FCFFF704FC0AE00648401E407B57
:100F0000022805D100200349491E4873FFF70EFA55
:100F1000F3E7000011000020100400480400000066
:100F20001004004803000000100000480F000000FB
:100F3000500F00080000002010000000F40000081E
:100F4000600F000810000020700800001001000869
:100F5000000000000000000200000000000000008F
:040000050800018D61
:00000001FF
